:100000000C94D0030C94EF030C94EF030C94EF03C7
:100010000C94EF030C94EF030C9494040C94EF03F2
:100020000C94EF030C94EF030C94EF030C94EF0388
:100030000C942B050C94EF030C94EF030C94EF033A
:100040000C94EF030C94EF030C94EF030C94EF0368
:100050000C94EF030C94EF030C94EF030C94EF0358
:100060000C94EF030C94EF030C94F1030C94EF0346
:100070000C94EF030C94EF030C94EF030C94EF0338
:100080000C94EF030C94EF030C94EF0322080A0E78
:10009000206004020506070809020303050802049C
:1000A00002040704070707070707070702020707F5
:1000B00007080E0908080807070908020708070BC0
:1000C0000809070909070808090D070808040404B6
:1000D0000608030707060707050707020306020AC3
:1000E0000707070705060507070B060705050105AE
:1000F00007080000000000000000FEFE18181E1E89
:10010000001E1E000000000090F89E90F89E1C004B
:10011000001C0000183C26FF66CC88040C183C1814
:100120000C041C221CC0308E408000001804000CFF
:10013000100C80CC7E72F2DE0C80000C1C101010B3
:100140001C0C1C101E1E0000F0FC061C7CC006FCD3
:10015000F0C07C1C14140E14140000000000606039
:1001600060FCFC6060600000000C0C0000000000FF
:100170005838C0C0C0C0000000000000181800C0FF
:10018000380618040000F8FC0E060EFCF8040C1CDF
:10019000181C0C04180CFEFE00001C1C181C86C643
:1001A000663E1C181C1C18181818888C062626FE7B
:1001B000DC040C1C18180C04C0E0B88CFEFE800493
:1001C0000404041C1C04707E3E3636F6C60C1C1853
:1001D00018180C04F8FC6E6666EECC040C1818189F
:1001E0001C0C060606E6761E0600001C1C0000001D
:1001F0009CFE666666FE9C0C1C1818181C0C3C7E47
:10020000666666FCF80C1C18181C0C0418181818E4
:10021000181858386060F0F098980C00000000043E
:10022000040CD8D8D8D8D8D8D800000000000000D6
:100230000C9898F0F060600C040400000000080CBA
:1002400006C6E6763C180000001818000000E030F2
:1002500008C4F63A1A1AF2FA7E0408F00C30604C20
:100260009C98988C9C9C90484C2000C0F8BE86BE00
:10027000F8C000181C04040404041C18FEFE666682
:100280006666FEDC1C1C181818181C0CF8FC0E0600
:10029000060E9C08040C1C18181C0C04FEFE060616
:1002A000060EFCF81C1C1818181C0C04FEFE6666D2
:1002B0006666661C1C1818181818FEFE66666666C8
:1002C000061C1C0000000000F8FC0E0606C6CEDC72
:1002D000C8040C1C181818180C04FEFE606060603E
:1002E000FEFE1C1C000000001C1CFEFE1C1C80806E
:1002F000000000FEFE0C1C1818181C0CFEFE6030DE
:1003000078EC86021C1C000000041C18FEFE000095
:100310000000001C1C1818181818FEFE0E7CE000C7
:10032000E07C0EFEFE1C1C00000C1C0C00001C1CC3
:10033000FEFE1C78E080FEFE1C1C0000040C1C1C51
:10034000F8FC0E0606060EFCF8040C1C1818181C07
:100350000C04FEFE6666667E3C1C1C00000000006D
:10036000F8FC0E0686060EFCF8040C1C18181C0C73
:100370001C24FEFE6666E6E6BE1C001C1C00000097
:100380000C1C18103C7E666666EECC0C1C18181807
:100390001C0C060606FEFE0606060000001C1C00DD
:1003A0000000FEFE00000000FEFE040C1C18181CDD
:1003B0000C04021EFCE000E0FC1E020000001C1CFD
:1003C0001C00000006FEF800F0FE0EFEF000F8FE35
:1003D0000600001C1C1C0000001C1C1C0000060E5B
:1003E000F8F0F80E06181C0400041C18060E38F06D
:1003F000F0380E060000001C1C000000060686E611
:10040000761E0E06181C1C1818181818FEFE060674
:10041000FCFCC0C00638C000000004180606FEFE42
:10042000C0C0FCFC20380E0E382000000000000088
:1004300000000000000000008080808080808080BC
:100440000206040000001098D858F8F0000C1C18A0
:10045000180C1C10FEFE301838F0E01C1C0C181C88
:100460000C04E0F018183830040C18181C0CE0F0DC
:10047000381830FEFE040C1C180C1C1CE0F0D8D8F8
:10048000D8F0E0040C181818180818FCFE1A1A0006
:100490001C1C0000E0F0381830F8F864ECDCD8CC14
:1004A000FC7CFEFE301818F8F01C1C0000001C1C20
:1004B000FAFA1C1C00FAFAC0FC7CFEFEE0F0980878
:1004C0001C1C00041C18FEFE1C1CF8F81018F8F088
:1004D0001818F8F01C1C00001C1C00001C1CF8F86C
:1004E000301818F8F01C1C0000001C1CE0F0381834
:1004F00038F0E0040C1C181C0C04F8F8301838F024
:10050000E0FCFC0C181C0C04E0F0381830F8F8047F
:100510000C1C180CFCFCF8F83018181C1C0000000F
:1005200070F8D8D8D890081818181C0C18FCFE18A9
:1005300018000C1C1818F8F8000000F8F80C1C182B
:10054000180C1C1C38F8C000C0F83800001C1C1C1B
:10055000000018F8E000F038F000E0F81800001C87
:100560001C0C000C1C1C00001838E0E03818181C8B
:1005700004041C1818F8E000E0F8180084FCF83CAB
:1005800004001898D878381C1C18181880FC7E06AF
:1005900006007CFCC0C0FEFC06067EFC80C0C0FCE1
:1005A0007C006030307060603000000000000000AF
:1005B000FE020202020202FE1C1010101010101C9B
:1005C000000000000000005F0000000700070014AA
:1005D0007F147F14242A7F2A122313086462364969
:1005E0005522500005030000001C2241000041225A
:1005F0001C00082A1C2A0808083E08080050300081
:1006000000080808080800606000002010080402C4
:100610003E5149453E00427F4000426151494621DA
:1006200041454B311814127F1027454545393C4A46
:100630004949300171090503364949493606494996
:10064000291E00363600000056360000000814222D
:100650004114141414144122140800020151090613
:10066000324979413E7E1111117E7F494949363E1A
:10067000414141227F4141221C7F494949417F0933
:100680000901013E414151327F0808087F00417F46
:1006900041002040413F017F081422417F404040FB
:1006A000407F0204027F7F0408107F3E4141413EAB
:1006B0007F090909063E4151215E7F0919294646F5
:1006C0004949493101017F01013F4040403F1F201E
:1006D00040201F7F2018207F6314081463030478D0
:1006E0000403615149454300007F41410204081061
:1006F0002041417F0000040201020440404040408C
:10070000000102040020545454787F48444438388F
:1007100044444420384444487F3854545418087E94
:10072000090102081454543C7F0804047800447DF5
:1007300040002040443D00007F10284400417F409D
:10074000007C041804787C08040478384444443855
:100750007C14141408081414187C7C080404084839
:1007600054545420043F4440203C4040207C1C20F2
:1007700040201C3C4030403C44281028440C505041
:10078000503C4464544C44000836410000007F0053
:1007900000004136080008082A1C08081C2A08081E
:1007A00011241FBECFEFD0E1DEBFCDBF18E0A0E027
:1007B000B1E0E0E4F6E200E00BBF02C007900D926A
:1007C000A63DB107D9F718E0A6EDB8E001C01D922B
:1007D000AF3EB107E1F70E94120D0C941E130C946A
:1007E00000001F920F920FB60F9211248F939F93C8
:1007F00080EA9FE00197F1F79F918F910F900FBED4
:100800000F901F9018951ABA8AB3887F8ABB87B356
:10081000886187BB08958EB58C608EBD8AE698E1AD
:100820009BBD8ABD87B7806187BFEAE8F0E0808121
:100830008C60808381E792E09093870080938600AC
:100840008AB78C608ABF89B7806289BF789408951F
:1008500089B381708093D60889B382708093D7085A
:1008600089B384708093D80889B388708093D9083D
:1008700089B380718093DA0889B380728093DB0832
:1008800089B380748093DC0889B380788093DD0815
:1008900086B381708093DE0886B382708093E0080F
:1008A00086B384708093E10808958091D608809380
:1008B00000018091D708809301018091D80880932E
:1008C00002018091D908809303018091DA08809316
:1008D00004018091DB08809305018091DC088093FE
:1008E00006018091DD08809307018091DE088093E6
:1008F000DF088091E008809308018091E1088093EF
:10090000090108959091DE088091DF08981759F049
:10091000913029F481E090E00E94DC05089580E0A8
:1009200090E00E94DC0508951F920F920FB60F927F
:100930000BB60F9211242F933F934F935F936F93B6
:100940007F938F939F93AF93BF93EF93FF9381E038
:1009500090E00E94DC05FF91EF91BF91AF919F91D4
:100960008F917F916F915F914F913F912F910F9058
:100970000BBE0F900FBE0F901F9018959091DC0842
:1009800080910601981759F0903429F480E090E0A6
:100990000E94FA05089581E090E00E94FA0508950A
:1009A0008091D8089091D708892B9091D908892BEC
:1009B0009091DA08892B9091DB08892B19F081E05E
:1009C00090E002C080E090E00E94180608959091A7
:1009D000D70880910101981711F00E94D0049091DE
:1009E000D80880910201981711F00E94D0049091CC
:1009F000D90880910301981711F00E94D0049091BA
:100A0000DA0880910401981711F00E94D0049091A7
:100A1000DB0880910501981759F0903229F481E0A4
:100A200090E00E941806089580E090E00E94180669
:100A300008959091D60880910001981759F091304F
:100A400029F481E090E00E943606089580E090E06D
:100A50000E94360608951F920F920FB60F920BB6A2
:100A60000F9211242F933F934F935F936F937F9334
:100A70008F939F93AF93BF93EF93FF93C39A0E947B
:100A800028040E9419050E94E7040E94BE040E94E7
:100A900082040E94550488B3807F88BBFF91EF9148
:100AA000BF91AF919F918F917F916F915F914F9186
:100AB0003F912F910F900BBE0F900FBE0F901F9084
:100AC00018950895089582E390E06FE370E00E9426
:100AD00018078AE091E00E949B0708950F931F93E7
:100AE000CF93DF9390E0AA2797FDA095BA2FBC0182
:100AF000CD010E9419102AE939E949E95EE30E9413
:100B0000EF0E0E94190D062F10E0C5E3D0E00CC0D7
:100B100010FD08C083E790E0BE014FE750E09E0162
:100B20000E94F9091F5F2197101790F389E690E062
:100B30006FE370E00E94180780E191E00E949B073C
:100B4000DF91CF911F910F9108950F931F93CF9332
:100B5000DF9390E0AA2797FDA095BA2FBC01CD01A5
:100B60000E9419102AE939E949E95EE30E94EF0E73
:100B70000E94190D062F10E0C5E3D0E00CC010FD57
:100B800008C080E090E0BE014CE050E09E010E9471
:100B9000F9091F5F2197101790F380E090E06FE351
:100BA00070E00E94180785E191E00E949B07DF91A9
:100BB000CF911F910F9108950F931F93882369F090
:100BC0008AE995E06CE370E040E050E024E130E039
:100BD00004E110E00E94B40C0AC08CE390E060E0F5
:100BE00070E040E550E024E130E00E9457091F9199
:100BF0000F9108950F931F93882369F082E295E087
:100C000068E270E040E050E024E130E004E110E010
:100C10000E94B40C0AC088E290E060E070E04CE30F
:100C200050E024E130E00E9457091F910F91089590
:100C30000F931F93882369F08EE595E064E170E0DF
:100C400040E050E024E130E004E110E00E94B40C08
:100C50000AC084E190E060E070E048E250E024E106
:100C600030E00E9457091F910F9108950F931F9331
:100C7000882369F086ED95E060E070E040E050E0A8
:100C800024E130E004E110E00E94B40C0AC080E0EE
:100C900090E060E070E044E150E024E130E00E9448
:100CA00057091F910F9108950F931F930E94A10858
:100CB0000E946A0882E291E00E94970B80E197E22D
:100CC00020E931E0F9013197F1F70197D9F70E9456
:100CD0006A0884E090E065E170E04BE750E025E1D0
:100CE00030E00E94F90980E190E065E370E04FE6B2
:100CF00050E025E330E00E94F90980E090E06CE3E9
:100D000070E00E9418078EE297E062E370E04AE12B
:100D100050E028E230E00AE110E00E94B40C89E1E2
:100D200091E06CE870E048E150E028E130E00E949A
:100D30006A0B8EE490E060E270E00E9418078DE19B
:100D400091E00E949B0789E490E00E94A50582E360
:100D500090E00E946E0588E290E00E9463051F917A
:100D60000F91089500000000000000000000000046
:100D7000000000000000000008959FEF92B982BBC0
:100D8000189A0E94B20618980E94B2060895806CC4
:100D90000E94BD060895886B0E94BD0608958034A8
:100DA00018F41C981B9A03C01B981C9A80548064EA
:100DB0000E94BD0608958091ED08803418F41C98B7
:100DC0001B9A08951B981C9A08950E94DB0611BA7D
:100DD0001A9883B1836083B90E94B20680B391B33D
:100DE0009FEF91BB93B19C7F93B908950E94E50654
:100DF00090E024E0969587952A95E1F78170089513
:100E00000E94E50690E035E0969587953A95E1F7E2
:100E1000817008950E94E506881F8827881F08951D
:100E200002C00E94B2060E940A078823D1F70895E3
:100E30000F931F93182F062F8093ED086093EE08F1
:100E40000E94DB06812F0E94CF06802F8695869513
:100E500086950E94CB061F910F9108951F93809154
:100E6000ED086091EE080E94180781B311BA83B1B2
:100E7000876083B90E94B20610B383B1887F83B9BB
:100E80000E94B20681B38FEF81BB8091ED08609123
:100E9000EE080E941807812F1F9108950E942E07C7
:100EA0000E942E0708951F93182F8091ED086091DE
:100EB000EE080E9418078FEF81BB12BB83B18560DB
:100EC00083B90E94B20618981A980E94B2068091BF
:100ED000ED088F5F8093ED081F9108950F931F9386
:100EE000CF93DF9395E0899FC0011124EC01C05E90
:100EF000DA4F8C010B5D1A4F8091ED0887FF0BC014
:100F00006091EE08683418F4685F80E002C080E009
:100F100060E00E941807FE0184910E945307219609
:100F2000C017D10749F780E00E945307DF91CF91A6
:100F30001F910F9108951F93CF93DF93EC0110E061
:100F40000DC08A3041F41092ED088091EE08885F60
:100F50008093EE0802C00E946E071F5FFE01E10F42
:100F6000F11D8081882369F7DF91CF911F9108954A
:100F70000F931F93162F042F682F70E043E0660F26
:100F8000771F4A95E1F7812F0E94180704C08FEF61
:100F90000E9453071F5F0117D0F71F910F9108950B
:100FA0000F931F93162F042F682F70E053E0660FE6
:100FB000771F5A95E1F7812F0E94180704C080E03F
:100FC0000E9453071F5F1017D0F31F910F910895D0
:100FD0000F931F93162F042F682F70E0E3E0660F26
:100FE000771FEA95E1F7812F0E94180706C00E943B
:100FF0004E0780950E9453071F5F0117C0F71F918E
:101000000F9108951F93162F0E9418070E944E07F4
:10101000482F212F30E02770307090E0022E02C060
:10102000959587950A94E2F780FF0AC081E090E0E9
:1010300002C0880F991F2A95E2F78095842308C083
:1010400081E090E002C0880F991F2A95E2F7842B77
:101050000E9453071F9108951F93162F0E9418078F
:101060000E944E07177021E030E002C0220F331FAC
:101070001A95E2F7209582230E9453071F91089545
:101080001F93162F0E9418070E944E07177021E029
:1010900030E002C0220F331F1A95E2F7822B0E9424
:1010A00053071F910895FF920F931F93F82E00E0AE
:1010B00080E0602F0E94180710E08F2D0E945307D8
:1010C0001F5F1038D1F7085F003491F71F910F911F
:1010D000FF90089580E00E9453080895EF92FF92D8
:1010E0000F931F937C01062F142F4093ED08862F3A
:1010F00090E0F3E0880F991FFA95E1F78093EE08EE
:101100000E94DB06812F0E94CF06802F0E94CB0613
:10111000C7010E949B071F910F91FF90EF900895C8
:101120001C981B9A08951B981C9A08951C981B9A4A
:101130008FE30E94BD061B981C9A8FE30E94BD0698
:10114000089582B18F6182B981B38FEF81BB02C0F4
:101150000E94B2060E94F6068823D1F70E949608E4
:101160000E946A0880E060E00E94180708951C98B9
:101170001B9A8EE30E94BD061B981C9A8EE30E9468
:10118000BD060895681710F4861B0895681B862F06
:1011900008956F927F928F929F92BF92CF92DF922B
:1011A000EF92FF920F931F93CF93DF934801370184
:1011B000481728F0C82ED42E462FE22E04C0C42E85
:1011C000D82E422FE62EE41618F48E2DE42E482F4A
:1011D000242F30E0842F86958695869590E00196A1
:1011E00053E0880F991F5A95E1F7821B930B68E033
:1011F00070E00E94C012F42EE901C80FD11D08C092
:10120000812F6F2DF40109951F5FD116C8F7F39454
:101210002F2D30E02C173D0714F41C2DF6CFBF2CDA
:10122000B694B694B6948E2D90E0821B930B68E032
:1012300070E00E94C012062F10E005C06C2D4D2DED
:10124000F30109951F5F812F8B0D1017B8F3000F65
:10125000000F000F0F0D08C0812F602FF4010995BA
:101260001F5FD116C8F70F5FE01610F01C2DF9CFE5
:10127000DF91CF911F910F91FF90EF90DF90CF9072
:10128000BF909F908F907F906F900895EF92FF9204
:101290000F931F9300E418E078EBE72E77E0F72E2A
:1012A0000E94C9081F910F91FF90EF900895EF924F
:1012B000FF920F931F930CE218E0E0EDEE2EE7E0B3
:1012C000FE2E0E94C9081F910F91FF90EF90089584
:1012D000EF92FF920F931F9302E018E0F8EEEF2ECB
:1012E000F7E0FF2E0E94C9081F910F91FF90EF9029
:1012F0000895AF92BF92CF92DF92EF92FF920F9339
:101300001F93CF93DF93E801261718F4362F321B73
:1013100002C0322F361B481718F4982F941B02C0B6
:10132000942F981BAA24931738F4AA24A394E22E8E
:10133000242F462F382F03C0E42E482F362FE416D3
:1013400030F4842F4E2DE82E832F322F282F47FD87
:1013500040E0E7FCEE2437FD30E027FD20E0BE2C26
:10136000B41A231718F4C32EC21A02C0C22EC31A0D
:10137000321718F0DD24DA9402C0DD24D3948B2DCB
:1013800090E08095909562E070E00E94C012062F78
:10139000142FF32E0FC0AA2019F08F2D612F02C039
:1013A000812F6F2DFE0109950C0D101614F4FD0C04
:1013B0000B191F5FE11678F7DF91CF911F910F9105
:1013C000FF90EF90DF90CF90BF90AF9008950F9374
:1013D0001F9302E018E00E9479091F910F91089570
:1013E0000F931F930CE218E00E9479091F910F914F
:1013F00008950F931F9300E418E00E9479091F914C
:101400000F910895EF92FF920F931F93082F162FBD
:10141000F42EE22E212F0E94F909802F612F402FF8
:101420002E2D0E94F9098F2D6E2D4F2D212F0E94F8
:10143000F909802F6E2D4F2D2E2D0E94F9091F9135
:101440000F91FF90EF9008956F927F928F929F92ED
:10145000AF92BF92CF92DF92EF92FF920F931F93C2
:10146000DF93CF930F92CDB7DEB7982EA62E39011A
:10147000862E881A842F90E0880F991F9095819569
:101480009F4F082F0D5FB42EDD241B2D1A0D4D2DFF
:10149000490DCA2CCB18842F612F2C2DF3010995EF
:1014A000492D4D19842F612F2C2DF3010995FD2C09
:1014B000FA0C1819EA2CED18812F6F2D412F2E2DC3
:1014C000F3010995C818C9828C2D6F2D4C2D2E2D36
:1014D000F30109958D2D90E007FF07C00A5F880F83
:1014E000991F880F991F080F09C0065F8B19910972
:1014F000880F991F880F991F080FBA94D394BD14B1
:1015000020F60F90CF91DF911F910F91FF90EF90F8
:10151000DF90CF90BF90AF909F908F907F906F9013
:10152000089520EF39E00E94240A089529EF39E058
:101530000E94240A08952F923F924F925F926F92D9
:101540007F928F929F92AF92BF92CF92DF92EF9253
:10155000FF920F931F93DF93CF9300D000D0CDB7AE
:10156000DEB7482F8B012090ED085091EE085A838A
:101570000D5F1F4FF80174910F5F1F4FF8015491D9
:101580000F5F1F4FF801649105501040851708F454
:101590008AC0282F30E0852F90E0860F911D82179A
:1015A00093070CF480C0242F251BF801369690E099
:1015B00040E050E005C08491480F511D9F5F319677
:1015C0009217C8F3E72EFF2487E090E0E80EF91E9B
:1015D000C70133E0959587953A95E1F7E9EFFFEF7D
:1015E000EE0EFF1E8983FC01E49FC001E59F900D74
:1015F000F49F900D1124A62EBB2446E050E0A40ECB
:10160000B51EA80EB91EE22FF0E03696E00FF11FCE
:10161000849098E0C92ED12CCE18DF08442455249C
:1016200088E0682E712C36C03C2CC501850D911DBB
:10163000800F911F9C838B83992416C0EB81FC81C2
:101640008491E614F7043CF490E0032C02C09595D5
:1016500087950A94E2F70E94530793944B815C812B
:101660004F5F5F4F5C834B83981440F380E00E9490
:1016700053078091ED0881506091EE08685F8819EA
:101680000E9418074394580C88E090E0680E791E79
:10169000C80ED91E9981491638F22394822D880DDF
:1016A0006A810E9418070F900F900F900F90CF91B2
:1016B000DF911F910F91FF90EF90DF90CF90BF903F
:1016C000AF909F908F907F906F905F904F903F90E2
:1016D0002F900895EF92FF920F931F93CF93DF9374
:1016E0007C01EB014093ED082093EE0810E0239677
:1016F000FE01049123970EC08A3041F41092ED0848
:101700008091EE08800F8093EE0803C0BE010E9416
:101710009B0A1F5FF701E10FF11D8081882361F7AC
:10172000DF91CF911F910F91FF90EF900895CF928D
:10173000DF92EF92FF920F931F93CF93DF936C0191
:1017400000E0C0E0D0E080E0602F0E94180710E0C9
:101750007601EC0EFD1EF701E10FF11D80810E9464
:1017600053071F5F1038B9F7085FC058DF4F0034C8
:1017700051F7DF91CF911F910F91FF90EF90DF9084
:10178000CF9008958F929F92AF92BF92CF92DF92A7
:10179000EF92FF920F931F93982EA62E862E881AF3
:1017A000842F90E0880F991F909581959F4F63E05B
:1017B000D62ED80EB42ECC241C2D190D0B2D0A0DAF
:1017C000812F602F0E944008FA2CFB18812F6F2D6B
:1017D0000E944008192D1C19812F602F0E9440087B
:1017E000812F6F2D0E9440080819EC2CEA0C802FE5
:1017F0006E2D0E9440081A2D1C19802F612F0E9407
:101800004008F8188F2D6E2D0E9440088F2D612FF3
:101810000E9440088C2D90E0D7FE08C026E0D20E32
:10182000880F991F880F991FD80E0AC02AE0D20E80
:101830008B199109880F991F880F991FD80EBA9498
:10184000C394BC1408F0B8CF1F910F91FF90EF9094
:10185000DF90CF90BF90AF909F908F900895EF92C0
:10186000FF920F931F93CF93DF93062F142FC0E0A7
:10187000D0E0E82EFF24C7010C2E02C09595879575
:101880000A94E2F780FF05C0802F612F0E94400874
:1018900004C0802F612F0E942C0821961F5FC83042
:1018A000D10549F7DF91CF911F910F91FF90EF90F4
:1018B0000895BF92CF92DF92EF92FF920F931F9302
:1018C000CF93DF93B62EDE2C469FE0011124C80F84
:1018D000D91F00E010E0FF2412C02881C8018E0D3E
:1018E0009F1D8038910544F48FE38C1528F06D0D11
:1018F000822F4C2D0E942F0C0F5F1F4F2196602FBF
:101900000B1558F3DF91CF911F910F91FF90EF903E
:10191000DF90CF90BF900895EF920F93FC01962F28
:101920006E2D07FD1EC06034E0F4822F86958695EB
:101930008695899FC0011124E80FF91FE40FF11D5E
:10194000808190E0277002C0959587952A95E2F7EF
:1019500080FF04C0802F0E94400803C0802F0E9497
:101960002C080F91EF9008958F929F92AF92BF92A3
:10197000CF92DF92EF92FF920F931F93CF93DF935B
:10198000EC01A62EB42ED22E902E802E8694869414
:101990008694F42E10E00CC0CE016D2D412F20E076
:1019A0000D2DEA2CCF2C0E94590C1F5F88E0F80EF9
:1019B000181590F3C82CCC0CCC0CCC0CFC2CFB0CCC
:1019C0000EC0012F0A0DCE016D2D412F2C2DEF2CB5
:1019D0000E948C0C1F5F1D15A0F3C394F394C914CF
:1019E00010F410E0F8CF8D2D8A0D8093ED08B092A1
:1019F000EE0887FF0AC01092ED08892D8B0D8093A9
:101A0000EE08803410F01092EE08DF91CF911F9114
:101A10000F91FF90EF90DF90CF90BF90AF909F908D
:101A20008F9008950E9403040E9454060E940B04A4
:101A3000FFCFEF92FF920F931F937B018C0120E069
:101A400030E040E05FE40E94E90F88238CF0C80199
:101A5000B70120E030E040E05FE40E94910E0E9478
:101A600077109B01AC01205030404040504806C0E8
:101A7000C801B7010E9477109B01AC01B901CA01EE
:101A80001F910F91FF90EF900895A0E0B0E0EBE47C
:101A9000FDE00C94E712DC012B01FA019C919230DD
:101AA00008F439C1EB018881823008F433C19430E5
:101AB00069F4843009F02FC111969C9111978981A6
:101AC000981709F428C1AEECB7E025C1843009F4B9
:101AD00021C18230A9F4923009F01DC19A01AD01F3
:101AE00088E0EA010990AE01E90109929E01815066
:101AF000C1F7E201898111969C918923818308C1F4
:101B0000923009F407C112962D903C901397EB0187
:101B10008A819B811496AD90BD90CD90DC901797F3
:101B2000EC80FD800E811F819101281B390BB901CA
:101B300037FF04C066277727621B730B603271057D
:101B40000CF061C0121613066CF537014801062E21
:101B500004C096948794779467940A94D2F721E00E
:101B600030E040E050E004C0220F331F441F551FF7
:101B70006A95D2F721503040404050402E213F21FD
:101B800040235123211531054105510521F021E064
:101B900030E040E050E079018A01E628F728082982
:101BA00019293CC0232BD1F1260E371E35014601E1
:101BB000062E04C096948794779467940A94D2F77B
:101BC00021E030E040E050E004C0220F331F441F0A
:101BD000551F6A95D2F721503040404050402A218D
:101BE0003B214C215D21211531054105510521F095
:101BF00021E030E040E050E059016A01A628B72812
:101C0000C828D9280BC0821593052CF01C01AA24E2
:101C1000BB24650103C0EE24FF24870111969C912B
:101C2000D20111968C91981709F445C0992339F087
:101C3000A80197012A193B094C095D0906C0A601B4
:101C400095012E193F09400B510B57FD08C0118219
:101C50003382228224833583468357831DC081E0EB
:101C600081833382228288279927DC01821B930B90
:101C7000A40BB50B84839583A683B7830DC0220F75
:101C8000331F441F551F2483358346835783828126
:101C90009381019793838283248135814681578183
:101CA000DA01C9010197A109B1098F5F9F4FAF4FB9
:101CB000BF4328F30BC0918333822282EA0CFB1CC2
:101CC0000C1D1D1DE482F5820683178383E080834B
:101CD000248135814681578157FF1AC0C901AA273F
:101CE00097FDA095BA2F81709070A070B070569536
:101CF000479537952795822B932BA42BB52B84835F
:101D00009583A683B783828193810196938382838F
:101D1000DF0101C0D201CD01CDB7DEB7E2E10C9405
:101D20000313A0E2B0E0E7E9FEE00C94F31269834C
:101D30007A838B839C832D833E834F835887E9E08E
:101D4000EE2EF12CEC0EFD1ECE010196B7010E9485
:101D5000EF118E010F5E1F4FCE010596B8010E9454
:101D6000EF118A8991E089278A8BC701B801AE01FA
:101D7000475E5F4F0E94450D0E941A11A096E6E053
:101D80000C940F13A0E2B0E0E8ECFEE00C94F31228
:101D900069837A838B839C832D833E834F8358870B
:101DA000F9E0EF2EF12CEC0EFD1ECE010196B701ED
:101DB0000E94EF118E010F5E1F4FCE010596B801F4
:101DC0000E94EF11C701B801AE01475E5F4F0E944C
:101DD000450D0E941A11A096E6E00C940F13A0E2A4
:101DE000B0E0E5EFFEE00C94E71269837A838B8321
:101DF0009C832D833E834F835887CE010196BE017D
:101E0000675F7F4F0E94EF11CE010596BE016F5EA6
:101E10007F4F0E94EF119985923088F08989823036
:101E2000C8F0943019F4823051F404C0843029F49D
:101E3000923081F48EEC97E0C6C0923049F420E0F5
:101E40009A858A89981321E02A87CE010996BBC01A
:101E5000823049F420E09A858A89981321E02A8B00
:101E6000CE014196B0C02D843E844F8458886D8841
:101E70007E888F88988CEE24FF248701AA24BB24B7
:101E8000650140E050E060E070E0E0E0F0E0C101BA
:101E900081709070892BE9F0E60CF71C081D191D64
:101EA0009A01AB012A0D3B1D4C1D5D1D80E090E0A9
:101EB000A0E0B0E0E614F7040805190520F481E07D
:101EC00090E0A0E0B0E0BA01A901480F591F6A1FD5
:101ED0007B1FAA0CBB1CCC1CDD1C97FE08C081E03C
:101EE00090E0A0E0B0E0A82AB92ACA2ADB2A3196FD
:101EF000E032F10549F0660C771C881C991C569459
:101F0000479437942794C3CFFA85EA892B893C8973
:101F10008B859C85280F391F2E5F3F4F17C0CA0144
:101F200081709070892B61F016950795F794E7946E
:101F300080E090E0A0E0B0E8E82AF92A0A2B1B2B09
:101F400076956795579547952F5F3F4F77FDE7CF7C
:101F50000CC0440F551F661F771F17FD4160EE0C24
:101F6000FF1C001F111F21503040403090E05907E6
:101F700090E0690790E4790760F32B8F3C8FDB01D9
:101F8000CA018F779070A070B07080349105A10560
:101F9000B10561F447FD0AC0E114F1040105110522
:101FA00029F0405C5F4F6F4F7F4F40781A8EFE17CD
:101FB00011F081E08A8F4D8F5E8F6F8F78A383E061
:101FC000898FCE0149960E941A11A096E2E10C94E5
:101FD0000313A8E1B0E0EFEEFFE00C94F312698385
:101FE0007A838B839C832D833E834F83588789E03C
:101FF000E82EF12CEC0EFD1ECE010196B7010E94D9
:10200000EF118E010F5E1F4FCE010596B8010E94A1
:10201000EF118985823040F08989823028F0C7012C
:10202000B8010E94671201C08FEF6896E6E00C9439
:102030000F13A8E0B0E0EFE1F0E10C94F0129B0187
:10204000AC0183E08983DA01C9018827B7FD839554
:102050009927AA27BB27B82E21153105410551051F
:1020600019F482E089833AC08823A9F0203080E007
:10207000380780E0480780E8580729F460E070E0FE
:1020800080E09FEC30C0EE24FF248701E21AF30ABF
:10209000040B150B02C079018A018EE1C82ED12CE8
:1020A000DC82CB82ED82FE820F831887C801B701E4
:1020B0000E94CB1001971816190684F4082E04C04C
:1020C000EE0CFF1C001F111F0A94D2F7ED82FE8256
:1020D0000F831887C81AD90ADC82CB82BA82CE0154
:1020E00001960E941A112896E9E00C940C13ACE0BA
:1020F000B0E0EDE7F0E10C94F71269837A838B830B
:102100009C83CE010196BE016B5F7F4F0E94EF1151
:102110008D81823061F1823050F1843021F48E81E2
:10212000882351F12EC02F81388537FD20C06E8164
:102130002F3131051CF06623F9F023C08EE190E0C9
:10214000821B930B29853A854B855C8504C0569587
:102150004795379527958A95D2F76623B1F0509524
:102160004095309521953F4F4F4F5F4F0EC020E077
:1021700030E040E050E009C02FEF3FEF4FEF5FE766
:1021800004C020E030E040E050E8B901CA012C96DC
:10219000E2E00C941313EF92FF920F931F937B01D5
:1021A0008C0180E0E81680E0F80681E0080780E016
:1021B000180788F48FEFE816F1040105110531F0D6
:1021C00028F088E090E0A0E0B0E017C080E090E068
:1021D000A0E0B0E012C080E0E81680E0F80680E001
:1021E000080781E0180728F088E190E0A0E0B0E05F
:1021F00004C080E190E0A0E0B0E020E230E040E008
:1022000050E0281B390B4A0B5B0B04C01695079551
:10221000F794E7948A95D2F7F701EA52F84F808154
:10222000281B310941095109C9011F910F91FF90E4
:10223000EF900895DF92EF92FF920F931F93FC01AE
:10224000E480F58006811781D1808081823048F456
:1022500080E090E0A0E1B0E0E82AF92A0A2B1B2BED
:10226000A5C0843009F49FC0823021F4EE24FF24FD
:10227000870105C0E114F1040105110519F4E0E03E
:10228000F0E096C0628173819FEF623879070CF0AD
:102290005BC022E83FEF261B370B2A3131052CF0BB
:1022A00020E030E040E050E02AC0B801A701022E53
:1022B00004C076956795579547950A94D2F781E0C3
:1022C00090E0A0E0B0E004C0880F991FAA1FBB1FD8
:1022D0002A95D2F70197A109B1098E219F21A02348
:1022E000B1230097A105B10521F081E090E0A0E0C5
:1022F000B0E09A01AB01282B392B4A2B5B2BDA017A
:10230000C9018F779070A070B07080349105A105DD
:10231000B10539F427FF09C0205C3F4F4F4F5F4F95
:1023200004C0215C3F4F4F4F5F4FE0E0F0E02030B2
:10233000A0E03A07A0E04A07A0E45A0710F0E1E065
:10234000F0E079018A0127C06038710564F5FB016E
:10235000E158FF4FD801C7018F779070A070B0701F
:1023600080349105A105B10539F4E7FE0DC080E484
:1023700090E0A0E0B0E004C08FE390E0A0E0B0E027
:10238000E80EF91E0A1F1B1F17FF05C016950795BB
:10239000F794E794319687E016950795F794E794BC
:1023A0008A95D1F705C0EE24FF248701EFEFF0E016
:1023B0006E2F679566276795902F9F77D794DD24BA
:1023C000D7948E2F8695492F462B582F5D29B7011C
:1023D000CA011F910F91FF90EF90DF900895FC01CB
:1023E000DB01408151812281622F6F7770E0221FD3
:1023F0002227221F9381892F880F822B282F30E0DC
:10240000991F9927991F11969C93119721153105B2
:10241000A9F5411551056105710511F482E037C038
:1024200082E89FEF13969C938E9312979A01AB01CB
:1024300067E0220F331F441F551F6A95D1F783E0D1
:102440008C930DC0220F331F441F551F12968D9180
:102450009C911397019713969C938E93129720301B
:1024600080E0380780E0480780E4580758F3149666
:102470002D933D934D935C93179708952F3F31050E
:1024800079F4411551056105710519F484E08C93C7
:10249000089564FF03C081E08C9312C01C9210C0A9
:1024A0002F57304013963C932E93129783E08C93D2
:1024B00087E0440F551F661F771F8A95D1F7706418
:1024C00014964D935D936D937C93179708951F9386
:1024D000DC01FB019C91923008F447C0808182307E
:1024E00008F443C0943051F411961C91843099F54E
:1024F0008181682F70E0611B71093FC0843021F039
:10250000923031F48230B9F18181882389F12DC074
:1025100011961C9111978230F1F081811817D9F42E
:1025200012962D913C911397828193818217930784
:1025300094F028173907BCF014968D919D910D9059
:10254000BC91A02D248135814681578128173907F8
:102550004A075B0718F4112341F00AC0821793075A
:10256000A407B50740F4112319F061E070E005C03D
:102570006FEF7FEF02C060E070E0CB011F91089524
:1025800097FB092E07260AD077FD04D00CD006D081
:1025900000201AF4709561957F4F0895F6F7909595
:1025A00081959F4F0895AA1BBB1B51E107C0AA1F2D
:1025B000BB1FA617B70710F0A61BB70B881F991FE4
:1025C0005A95A9F780959095BC01CD0108952F9259
:1025D0003F924F925F926F927F928F929F92AF92B3
:1025E000BF92CF92DF92EF92FF920F931F93CF9300
:1025F000DF93CDB7DEB7CA1BDB0B0FB6F894DEBF97
:102600000FBECDBF09942A88398848885F846E84BC
:102610007D848C849B84AA84B984C884DF80EE8006
:10262000FD800C811B81AA81B981CE0FD11D0FB60F
:10263000F894DEBF0FBECDBFED010895F894FFCF33
:102640000101010101010101010131322E34560065
:1026500039302743003733250035274300323727E9
:102660004300000000000000000000000000000027
:10267000000000000000000000000000000000005A
:10268000000000000000000000000000000000004A
:10269000000000000000000000000000000000003A
:1026A000000000000000000000000000000000002A
:1026B000000000000000000000000000000000001A
:1026C000000000000000000000000000000000000A
:1026D00000000000000000000000000000000000FA
:1026E00000000000000000000000000000000000EA
:1026F00000000000000000000000000000000000DA
:1027000000000000000000000000000000000000C9
:1027100000000000000000000000000000000000B9
:1027200000000000000000000000000000000000A9
:102730000000000000000000000000000000000099
:102740000000000000000000000000000000000089
:102750000000000000000000000000000000000079
:102760000000000000000000000000000000000069
:102770000000000000000000000000000000000059
:102780000000000000000000000000000000000049
:102790000000000000000000000000000000000039
:1027A0000000000000000000000000000000000029
:1027B0000000000000000000000000000000000019
:1027C0000000000000000000000000000000000009
:1027D00000000000000000000000000000000000F9
:1027E00000000000000000000000000020F0F8FCE5
:1027F000FCFEFEDEDE9E9E9E9E1E1E1E1E1E1E1EDB
:102800000E060000F8FEFEFEFEFE000080E0F0FC7A
:10281000FCFCFC000000C0F0F8FCFEFE7E1E0E0674
:1028200080C0F8FCFEFEFE1E060080E0F8FCFEFE06
:10283000BE3E1E1E1E1E1E1E1E1E1E1E1E1E1E1EF8
:10284000060000181E1E1E1E9EFEFEFEFEFEFE1E42
:102850001E1E1E1E1E1E1E1E060000000000000082
:102860000000000000000000E0F0F0F0F0F0F0F1F7
:10287000F1F1F3F3F3F3F3F3F3FFFFFF7F7F3E0098
:1028800000000000FFFFFFFFFFFFFC7F1F0F03FBA7
:10289000FFFFFFFCFCFFFF7F1F0703010080F8F82C
:1028A000FFFFFF7F0F0100C0F0FCFFFFFF3F0F0F96
:1028B0000F0F0F0F0F0F0F0F0F0F07070100000073
:1028C0000000000000C0F0FEFFFFFF3F0F0100000E
:1028D00000000000000000000000000000000000F8
:1028E00000000000000000000000000000000101E6
:1028F00001010101010101010000000000000000D0
:1029000000000000000000000000000000000000C7
:1029100000000000000000000000000000000000B7
:1029200000000000000000000000000000000000A7
:102930000000000000000000000000000000000097
:102940000000000000000000000000000000000087
:102950000000000000000000000000000000000077
:102960000000000000000000000000000000000067
:102970000000000000000000000000000000000057
:102980000000000000000000000000000000000047
:102990000000000000000000000000000000000037
:1029A0000000000000000000000000000000000027
:1029B0000000000000000000000000000000000017
:1029C0000000000000000000000000000000000007
:1029D00000000000000000000000000000000000F7
:1029E00000000000000000000000000000000000E7
:1029F00000000000000000000000000000000000D7
:102A000000000000000000000000000000000000C6
:102A100000000000000000000000000000000000B6
:102A200000000000000000000000000000000000A6
:102A30000000000000000000000000000000000096
:102A40000000000000000000000000000000000086
:102A50000000000000000000000000000000000076
:102A600000000000C0406060604040404040406066
:102A7000606040C000000000FF8082828280808011
:102A800080808082878280FF0000000000000000BC
:102A90000000000000000000000000000000000036
:102AA000000080C06030101010101010101010F0D6
:102AB00000000000FEFFFDFCFCFCFCFCFCFCFCFC40
:102AC000F4F4F4FF00000000010101010101010123
:102AD0000101010101010101000080601884621000
:102AE0000808C444444488081062841860801F6049
:102AF0008F19608000003F04040403008060198F78
:102B0000601F000001020400010102020202010133
:102B1000000402010000000080C0E0E0F0F0F0F0EE
:102B2000E0C00040C0808000000000061F3F7F7FA3
:102B3000FFFFFFFF7F3F001236246D494900000070
:102B40000000000000000000000000000000000085
:102B50000000000080E0F0F0F8F8FCFCFCFCFCFC5D
:102B6000FCFCFCFC7C7C7C7C7C7C7C7C7C7CFCFCA5
:102B7000ECECCCCCCCCCCCCCCCCCCCCCCCFCCCCC25
:102B8000CCCCCCCCCCCCCCECECFCFC7C7C7C7C7C75
:102B90007C7CFCFCFCF0F000000000FFFFFFFFFF6E
:102BA000FFFFFFFFFFFFFFFF030100000000000029
:102BB0000000000000FFFFFFFFFFFFFFFFFFFFFF20
:102BC000FFFFFFFFFFFFFFFFFFFFFFFFFFFF010111
:102BD000000000000000000000FFFFFFFFFF0000FA
:102BE0000000FFFFFFFFFFFFFFFFFFFFFFFFFF8072
:102BF000000000000000000000000000FFFFFFFFD9
:102C0000FFFFFFFFFFFFFFFFFFFFFFFFFFFFFFFFD4
:102C1000FFFFFFFFFF8080000000000000000000B9
:102C2000FFFFFFFFFF0000000003070F0F1F1F3F04
:102C30003F3F3F3F3F3F3F3F3E3C3C3C3C3C3C3CBA
:102C40003C3C3C3F3F373733333333333333333319
:102C500033333F33333333333333333337373F3F18
:102C60003E3E3E3E3E3E3E3F3F3F0F0F00000000D7
:102C70000000000000000000000000000000000054
:102C800000808080404020201010080804040406C2
:102C90000504040400000080C0A09090701808088B
:102CA0000C040404040602020100000000000000FD
:102CB00000000000000000000000000000000F39CC
:102CC00020202020202078CC86020101010286CC21
:102CD000782020202020202020202020202020209C
:102CE0002020202000000000000000000000000064
:102CF00001010202020101000000000000000000CA
:102D000000000000000000000000000000000000C3
:102D1000000000000000000102020303030304049A
:102D20000404040404040505050505050505050559
:102D30000505050505050606060606060606060639
:102D40000606060606060606060606060606060623
:102D50000606060606060707070707070707070709
:102D600007070707070707070707070707070707F3
:102D700007070707070707070707070707070707E3
:102D800007070707070707070707070707070707D3
:102D900007070707070708080808080808080808B9
:102DA00008080808080808080808080808080808A3
:102DB0000808080808080808080808080808080893
:102DC0000808080808080808080808080808080883
:102DD0000808080808080808080808080808080873
:102DE0000808080808080808080808080808080863
:102DF0000808080808080808080808080808080853
:102E00000808080808080808080808080808080842
:062E10000808080808088C
:00000001FF
