:100000000C9451040C9470040C9470040C947004BF
:100010000C9470040C9470040C94AA050C94700455
:100020000C9470040C9470040C9470040C94700480
:100030000C943D060C9470040C9470040C947004A1
:100040000C9470040C9470040C9470040C94700460
:100050000C9470040C9470040C9470040C94700450
:100060000C9470040C9470040C9472040C9470043E
:100070000C9470040C9470040C9470040C94700430
:100080000C9470040C9470040C94700422080A0EF2
:10009000206004020506070809020303050802049C
:1000A00002040704070707070707070702020707F5
:1000B00007080E0908080807070908020708070BC0
:1000C0000809070909070808090D070808040404B6
:1000D0000608030707060707050707020306020AC3
:1000E0000707070705060507070B060705050105AE
:1000F00007080000000000000000FEFE18181E1E89
:10010000001E1E000000000090F89E90F89E1C004B
:10011000001C0000183C26FF66CC88040C183C1814
:100120000C041C221CC0308E408000001804000CFF
:10013000100C80CC7E72F2DE0C80000C1C101010B3
:100140001C0C1C101E1E0000F0FC061C7CC006FCD3
:10015000F0C07C1C14140E14140000000000606039
:1001600060FCFC6060600000000C0C0000000000FF
:100170005838C0C0C0C0000000000000181800C0FF
:10018000380618040000F8FC0E060EFCF8040C1CDF
:10019000181C0C04180CFEFE00001C1C181C86C643
:1001A000663E1C181C1C18181818888C062626FE7B
:1001B000DC040C1C18180C04C0E0B88CFEFE800493
:1001C0000404041C1C04707E3E3636F6C60C1C1853
:1001D00018180C04F8FC6E6666EECC040C1818189F
:1001E0001C0C060606E6761E0600001C1C0000001D
:1001F0009CFE666666FE9C0C1C1818181C0C3C7E47
:10020000666666FCF80C1C18181C0C0418181818E4
:10021000181858386060F0F098980C00000000043E
:10022000040CD8D8D8D8D8D8D800000000000000D6
:100230000C9898F0F060600C040400000000080CBA
:1002400006C6E6763C180000001818000000E030F2
:1002500008C4F63A1A1AF2FA7E0408F00C30604C20
:100260009C98988C9C9C90484C2000C0F8BE86BE00
:10027000F8C000181C04040404041C18FEFE666682
:100280006666FEDC1C1C181818181C0CF8FC0E0600
:10029000060E9C08040C1C18181C0C04FEFE060616
:1002A000060EFCF81C1C1818181C0C04FEFE6666D2
:1002B0006666661C1C1818181818FEFE66666666C8
:1002C000061C1C0000000000F8FC0E0606C6CEDC72
:1002D000C8040C1C181818180C04FEFE606060603E
:1002E000FEFE1C1C000000001C1CFEFE1C1C80806E
:1002F000000000FEFE0C1C1818181C0CFEFE6030DE
:1003000078EC86021C1C000000041C18FEFE000095
:100310000000001C1C1818181818FEFE0E7CE000C7
:10032000E07C0EFEFE1C1C00000C1C0C00001C1CC3
:10033000FEFE1C78E080FEFE1C1C0000040C1C1C51
:10034000F8FC0E0606060EFCF8040C1C1818181C07
:100350000C04FEFE6666667E3C1C1C00000000006D
:10036000F8FC0E0686060EFCF8040C1C18181C0C73
:100370001C24FEFE6666E6E6BE1C001C1C00000097
:100380000C1C18103C7E666666EECC0C1C18181807
:100390001C0C060606FEFE0606060000001C1C00DD
:1003A0000000FEFE00000000FEFE040C1C18181CDD
:1003B0000C04021EFCE000E0FC1E020000001C1CFD
:1003C0001C00000006FEF800F0FE0EFEF000F8FE35
:1003D0000600001C1C1C0000001C1C1C0000060E5B
:1003E000F8F0F80E06181C0400041C18060E38F06D
:1003F000F0380E060000001C1C000000060686E611
:10040000761E0E06181C1C1818181818FEFE060674
:10041000FCFCC0C00638C000000004180606FEFE42
:10042000C0C0FCFC20380E0E382000000000000088
:1004300000000000000000008080808080808080BC
:100440000206040000001098D858F8F0000C1C18A0
:10045000180C1C10FEFE301838F0E01C1C0C181C88
:100460000C04E0F018183830040C18181C0CE0F0DC
:10047000381830FEFE040C1C180C1C1CE0F0D8D8F8
:10048000D8F0E0040C181818180818FCFE1A1A0006
:100490001C1C0000E0F0381830F8F864ECDCD8CC14
:1004A000FC7CFEFE301818F8F01C1C0000001C1C20
:1004B000FAFA1C1C00FAFAC0FC7CFEFEE0F0980878
:1004C0001C1C00041C18FEFE1C1CF8F81018F8F088
:1004D0001818F8F01C1C00001C1C00001C1CF8F86C
:1004E000301818F8F01C1C0000001C1CE0F0381834
:1004F00038F0E0040C1C181C0C04F8F8301838F024
:10050000E0FCFC0C181C0C04E0F0381830F8F8047F
:100510000C1C180CFCFCF8F83018181C1C0000000F
:1005200070F8D8D8D890081818181C0C18FCFE18A9
:1005300018000C1C1818F8F8000000F8F80C1C182B
:10054000180C1C1C38F8C000C0F83800001C1C1C1B
:10055000000018F8E000F038F000E0F81800001C87
:100560001C0C000C1C1C00001838E0E03818181C8B
:1005700004041C1818F8E000E0F8180084FCF83CAB
:1005800004001898D878381C1C18181880FC7E06AF
:1005900006007CFCC0C0FEFC06067EFC80C0C0FCE1
:1005A0007C006030307060603000000000000000AF
:1005B000FE020202020202FE1C1010101010101C9B
:1005C000000000000000005F0000000700070014AA
:1005D0007F147F14242A7F2A122313086462364969
:1005E0005522500005030000001C2241000041225A
:1005F0001C00082A1C2A0808083E08080050300081
:1006000000080808080800606000002010080402C4
:100610003E5149453E00427F4000426151494621DA
:1006200041454B311814127F1027454545393C4A46
:100630004949300171090503364949493606494996
:10064000291E00363600000056360000000814222D
:100650004114141414144122140800020151090613
:10066000324979413E7E1111117E7F494949363E1A
:10067000414141227F4141221C7F494949417F0933
:100680000901013E414151327F0808087F00417F46
:1006900041002040413F017F081422417F404040FB
:1006A000407F0204027F7F0408107F3E4141413EAB
:1006B0007F090909063E4151215E7F0919294646F5
:1006C0004949493101017F01013F4040403F1F201E
:1006D00040201F7F2018207F6314081463030478D0
:1006E0000403615149454300007F41410204081061
:1006F0002041417F0000040201020440404040408C
:10070000000102040020545454787F48444438388F
:1007100044444420384444487F3854545418087E94
:10072000090102081454543C7F0804047800447DF5
:1007300040002040443D00007F10284400417F409D
:10074000007C041804787C08040478384444443855
:100750007C14141408081414187C7C080404084839
:1007600054545420043F4440203C4040207C1C20F2
:1007700040201C3C4030403C44281028440C505041
:10078000503C4464544C44000836410000007F0053
:1007900000004136080008082A1C08081C2A08081E
:1007A0006E616E00696E660000407A10F35A00A018
:1007B000724E18090010A5D4E80000E8764817002A
:1007C00000E40B54020000CA9A3B000000E1F5056A
:1007D000000080969800000040420F000000A086B4
:1007E00001000000102700000000E80300000000E6
:1007F0006400000000000A0000000000010000008A
:1008000000002C76D888DC674F0823DFC1DFAE59A3
:10081000E1B1B796E5E3E453C63AE651997696E836
:10082000E6C28426EB898C9B62ED407C6FFCEFBCBA
:100830009C9F40F2BAA56FA5F490055A2AF75C93E5
:100840006B6CF9676DC11BFCE0E40D47FEF520E61B
:10085000B500D0ED902E0300943577050080841EFE
:10086000080000204E0A000000C80C333333330F59
:10087000986E12831141EF8D2114893BE65516CFF6
:10088000FEE6DB18D1844B381BF77C1D901DA4BB02
:10089000E424203284725E228100C9F124ECA1E5B7
:1008A0003D2711241FBECFEFD0E1DEBFCDBF19E041
:1008B000A0E0B1E0ECEBF0E300E00BBF02C007907A
:1008C0000D92A235B107D9F719E0A2E5B9E001C050
:1008D0001D92A438B107E1F70E94E10E0C945C1858
:1008E0000C9400001F920F920FB60F9211248F9359
:1008F0009F9380EA9FE00197F1F79F918F910F906E
:100900000FBE0F901F9018951ABA8AB3887F8ABBC2
:1009100087B3886187BB08958EB58C608EBD8AE6EB
:1009200098E19BBD8ABD87B7806187BFEAE8F0E0A8
:1009300080818C60808381E792E090938700809330
:1009400086008AB78C608ABF89B7806289BF789435
:100950000895E1E6F0E0808180833D9A86B1876862
:1009600086B9089580E287B9369A3699FECF85B167
:1009700080935F0981E287B9369A3699FECF85B1B7
:100980008093610982E287B9369A3699FECF85B1A4
:1009900080936309089589B381708093520989B364
:1009A00082708093540989B384708093550989B308
:1009B00088708093560989B380718093570989B3F1
:1009C00080728093580989B380748093590989B3E0
:1009D000807880935A0986B3817080935B0986B3CF
:1009E000827080935D0986B3847080935E09089558
:1009F000809152098093530980915409809300019A
:100A000080915509809301018091560980930201DC
:100A100080915709809303018091580980930401C4
:100A2000809159098093050180915A0980930601AC
:100A300080915B0980935C0980915D098093070137
:100A400080915E098093080180915F09809360091D
:100A500080916109809362098091630980936409A0
:100A6000089580916309482F50E09A012F5F3F4F0E
:100A700074E0359527957A95E1F78091640990E0C7
:100A8000019664E0959587956A95E1F728173907EF
:100A900019F0CA010E948106089580916109482FCA
:100AA00050E09A012F5F3F4FF4E035952795FA9576
:100AB000E1F78091620990E00196E4E095958795D1
:100AC000EA95E1F72817390719F0CA010E94B6061E
:100AD000089590915F0980916009981721F0892FFE
:100AE00090E00E94EB06089590915D0980910701C6
:100AF000981759F0923029F481E090E00E947F0726
:100B0000089580E090E00E947F07089590915A092F
:100B100080910601981759F0903829F481E090E00F
:100B20000E949D07089580E090E00E949D0708952F
:100B300090915B0980915C09981759F0913029F4E4
:100B400081E090E00E94BB07089580E090E00E9461
:100B5000BB0708951F920F920FB60F920BB60F921C
:100B600011242F933F934F935F936F937F938F93B2
:100B70009F93AF93BF93EF93FF9381E090E00E9428
:100B8000BB07FF91EF91BF91AF919F918F917F91A3
:100B90006F915F914F913F912F910F900BBE0F90EE
:100BA0000FBE0F901F9018959091590980910501E3
:100BB000981759F0903429F480E090E00E94D9070A
:100BC000089581E090E00E94D90708958091550929
:100BD00090915409892B90915609892B909157092E
:100BE000892B90915809892B19F081E090E002C07F
:100BF00080E090E00E94F707089590915409809159
:100C00000001981711F00E94E60590915509809116
:100C10000101981711F00E94E60590915609809104
:100C20000201981711F00E94E605909157098091F2
:100C30000301981711F00E94E605909158098091E0
:100C40000401981739F0903219F40E94E6050895CE
:100C50000E94E605089590915209809153099817D2
:100C600059F0913029F481E090E00E941508089530
:100C700080E090E00E94150808951F920F920FB631
:100C80000F920BB60F9211242F933F934F935F93C4
:100C90006F937F938F939F93AF93BF93EF93FF9344
:100CA000C39A0E94CB040E94B2040E942B060E94A9
:100CB000FD050E94D4050E9498050E9486050E94A9
:100CC00074050E944D050E9431050E9469050E942D
:100CD000F80488B3807F88BBFF91EF91BF91AF91FB
:100CE0009F918F917F916F915F914F913F912F9144
:100CF0000F900BBE0F900FBE0F901F901895089588
:100D000008950F931F93CF93DF9390E0019624E013
:100D1000959587952A95E1F7082F81E090E065E3A6
:100D200070E04DE050E027E130E00E94260B10E03B
:100D3000C5E3D0E00AC081E090E0BE014CE050E0A5
:100D40009E010E94C80B1F5F22971017A0F380E03E
:100D500090E06FE370E00E94E70889E091E00E9474
:100D60006A09DF91CF911F910F9108950F931F93FF
:100D7000CF93DF9390E0019634E0959587953A956F
:100D8000E1F7082F83E790E067E170E04FE750E07C
:100D900025E330E00E94260B10E0C5E3D0E00AC056
:100DA00083E790E0BE014EE750E09E010E94C80B31
:100DB0001F5F22971017A0F389E690E06FE370E0C1
:100DC0000E94E7088DE091E00E946A09DF91CF91CF
:100DD0001F910F910895EF92FF920F931F932DB7DC
:100DE0003EB7285030400FB6F8943EBF0FBE2DBF1F
:100DF0000DB71EB70F5F1F4F4AE7E42E49E0F42EF0
:100E0000EDB7FEB7F282E18222E131E0F8013383EF
:100E1000228390E0A0E0B0E0BC01CD010E949010E0
:100E200020E030E04FE753E40E94E40F20E030E0A0
:100E300040E451E40E94EA0EF801648375838683DE
:100E400097830E94CD172DB73EB7285F3F4F0FB64F
:100E5000F8943EBF0FBE2DBF80E390E068E370E0E2
:100E600048E550E020E430E00E94260B80E390E06B
:100E70006FE370E00E94E708C7010E946A091F91B2
:100E80000F91FF90EF9008950F931F938DB79EB72A
:100E900008970FB6F8949EBF0FBE8DBFEDB7FEB793
:100EA000319600E719E0ADB7BEB712961C930E93CA
:100EB000119788E191E09383828380914508909116
:100EC0004608A0914708B091480884839583A6837B
:100ED000B7830E94CD178DB79EB708960FB6F894CA
:100EE0009EBF0FBE8DBF8AE090E06EE170E00E9471
:100EF000E708C8010E946A091F910F9108950F9396
:100F00001F93882369F089E098E068E670E040E08C
:100F100050E024E130E004E110E00E94830E0AC0BA
:100F200088E690E060E070E04CE750E024E130E0DB
:100F30000E94260B1F910F9108950F931F938823F2
:100F400069F08DEC97E064E570E040E050E024E16A
:100F500030E004E110E00E94830E0AC084E590E0D6
:100F600060E070E048E650E024E130E00E94260BAB
:100F70001F910F9108950F931F93882369F089E9BA
:100F800095E06CE270E040E050E024E130E004E104
:100F900010E00E94830E0AC08CE290E060E070E0F6
:100FA00040E450E024E130E00E94260B1F910F91B5
:100FB00008950F931F93882369F081E295E060E420
:100FC00070E040E050E024E130E004E110E00E94F5
:100FD000830E0AC080E490E060E070E044E550E0F9
:100FE00024E130E00E94260B1F910F9108950F938A
:100FF0001F93882369F08DE595E068E170E040E09B
:1010000050E024E130E004E110E00E94830E0AC0C9
:1010100088E190E060E070E04CE250E024E130E0F4
:101020000E94260B1F910F9108950F931F93882301
:1010300069F085ED95E064E070E040E050E024E187
:1010400030E004E110E00E94830E0AC084E090E0EA
:1010500060E070E048E150E024E130E00E94260BBF
:101060001F910F9108950F931F930E94700A0E9481
:10107000390A81E291E00E94660D80E197E220E961
:1010800031E0F9013197F1F70197D9F70E94390A58
:1010900084E090E065E170E04BE750E025E130E06E
:1010A0000E94C80B80E190E065E370E04FE650E0FD
:1010B00025E330E00E94C80B80E090E06CE370E034
:1010C0000E94E7088DE297E062E370E04AE150E0B9
:1010D00028E230E00AE110E00E94830E8DE191E009
:1010E0006CE870E048E150E028E130E00E94390D02
:1010F0008EE490E060E270E00E94E7081F910F919B
:101100000895000000000000000000000000000042
:1011100000000000000008959FEF92B982BB189A6A
:101120000E94810818980E9481080895806C0E948E
:101130008C080895886B0E948C080895803418F4F8
:101140001C981B9A03C01B981C9A805480640E94B0
:101150008C08089580918209803418F41C981B9A99
:1011600008951B981C9A08950E94AA0811BA1A980B
:1011700083B1836083B90E94810880B391B39FEFEC
:1011800091BB93B19C7F93B908950E94B40890E0FD
:1011900024E0969587952A95E1F7817008950E943D
:1011A000B40890E035E0969587953A95E1F781701F
:1011B00008950E94B408881F8827881F089502C0D8
:1011C0000E9481080E94D9088823D1F708950F93BF
:1011D0001F93182F062F80938209609383090E9422
:1011E000AA08812F0E949E08802F86958695869555
:1011F0000E949A081F910F9108951F938091820970
:10120000609183090E94E70881B311BA83B18760B6
:1012100083B90E94810810B383B1887F83B90E948B
:10122000810881B38FEF81BB80918209609183092E
:101230000E94E708812F1F9108950E94FD080E94D7
:10124000FD0808951F93182F8091820960918309EA
:101250000E94E7088FEF81BB12BB83B1856083B921
:101260000E94810818981A980E948108809182092A
:101270008F5F809382091F9108950F931F93CF93DF
:10128000DF9395E0899FC0011124EC01C05EDA4F25
:101290008C010B5D1A4F8091820987FF0BC0609112
:1012A0008309683418F4685F80E002C080E060E081
:1012B0000E94E708FE0184910E9422092196C0172E
:1012C000D10749F780E00E942209DF91CF911F9159
:1012D0000F9108951F93CF93DF93EC0110E00DC0A1
:1012E0008A3041F41092820980918309885F80934B
:1012F000830902C00E943D091F5FFE01E10FF11D3D
:101300008081882369F7DF91CF911F9108950F9312
:101310001F93162F042F682F70E043E0660F771F8E
:101320004A95E1F7812F0E94E70804C08FEF0E94E1
:1013300022091F5F0117D0F71F910F9108950F9396
:101340001F93162F042F682F70E053E0660F771F4E
:101350005A95E1F7812F0E94E70804C080E00E94BF
:1013600022091F5F1017D0F31F910F9108950F935B
:101370001F93162F042F682F70E0E3E0660F771F8E
:10138000EA95E1F7812F0E94E70806C00E941D0937
:1013900080950E9422091F5F0117C0F71F910F91CE
:1013A00008951F93162F0E94E7080E941D09482FD9
:1013B000212F30E02770307090E0022E02C095950A
:1013C00087950A94E2F780FF0AC081E090E002C0AE
:1013D000880F991F2A95E2F78095842308C081E041
:1013E00090E002C0880F991F2A95E2F7842B0E9493
:1013F00022091F9108951F93162F0E94E7080E944B
:101400001D09177021E030E002C0220F331F1A952A
:10141000E2F7209582230E9422091F9108951F93CD
:10142000162F0E94E7080E941D09177021E030E086
:1014300002C0220F331F1A95E2F7822B0E94220965
:101440001F910895FF920F931F93F82E00E080E004
:10145000602F0E94E70810E08F2D0E9422091F5F75
:101460001038D1F7085F003491F71F910F91FF906A
:10147000089580E00E94220A0895EF92FF920F9350
:101480001F937C01062F142F40938209862F90E032
:10149000F3E0880F991FFA95E1F7809383090E9482
:1014A000AA08812F0E949E08802F0E949A08C701D7
:1014B0000E946A091F910F91FF90EF9008951C9868
:1014C0001B9A08951B981C9A08951C981B9A8FE3E9
:1014D0000E948C081B981C9A8FE30E948C08089528
:1014E00082B18F6182B981B38FEF81BB02C00E944C
:1014F00081080E94C5088823D1F70E94650A0E94CE
:10150000390A80E060E00E94E70808951C981B9A61
:101510008EE30E948C081B981C9A8EE30E948C0814
:101520000895681710F4861B0895681B862F089588
:101530006F927F928F929F92BF92CF92DF92EF92A3
:10154000FF920F931F93CF93DF9348013701481702
:1015500028F0C82ED42E462FE22E04C0C42ED82E3A
:10156000422FE62EE41618F48E2DE42E482F242F59
:1015700030E0842F86958695869590E0019653E01D
:10158000880F991F5A95E1F7821B930B68E070E072
:101590000E945516F42EE901C80FD11D08C0812FF5
:1015A0006F2DF40109951F5FD116C8F7F3942F2D05
:1015B00030E02C173D0714F41C2DF6CFBF2CB69449
:1015C000B694B6948E2D90E0821B930B68E070E089
:1015D0000E945516062F10E005C06C2D4D2DF3010D
:1015E00009951F5F812F8B0D1017B8F3000F000FA7
:1015F000000F0F0D08C0812F602FF40109951F5FA8
:10160000D116C8F70F5FE01610F01C2DF9CFDF914F
:10161000CF911F910F91FF90EF90DF90CF90BF90EF
:101620009F908F907F906F900895EF92FF920F930D
:101630001F930FE01AE077E8E72E79E0F72E0E947B
:10164000980A1F910F91FF90EF900895EF92FF92EB
:101650000F931F930BEF19E0EFE9EE2EE9E0FE2E5A
:101660000E94980A1F910F91FF90EF900895EF92BA
:10167000FF920F931F9301ED19E0F7EBEF2EF9E0C6
:10168000FF2E0E94980A1F910F91FF90EF900895EE
:10169000AF92BF92CF92DF92EF92FF920F931F9380
:1016A000CF93DF93E801261718F4362F321B02C0C0
:1016B000322F361B481718F4982F941B02C0942F12
:1016C000981BAA24931738F4AA24A394E22E242F5B
:1016D000462F382F03C0E42E482F362FE41630F45F
:1016E000842F4E2DE82E832F322F282F47FD40E0E8
:1016F000E7FCEE2437FD30E027FD20E0BE2CB41AD5
:10170000231718F4C32EC21A02C0C22EC31A3217EE
:1017100018F0DD24DA9402C0DD24D3948B2D90E000
:101720008095909562E070E00E945516062F142F68
:10173000F32E0FC0AA2019F08F2D612F02C0812F28
:101740006F2DFE0109950C0D101614F4FD0C0B19EC
:101750001F5FE11678F7DF91CF911F910F91FF90F6
:10176000EF90DF90CF90BF90AF9008950F931F93AD
:1017700001ED19E00E94480B1F910F9108950F93FE
:101780001F930BEF19E00E94480B1F910F910895D2
:101790000F931F930FE01AE00E94480B1F910F91C7
:1017A0000895EF92FF920F931F93082F162FF42E98
:1017B000E22E212F0E94C80B802F612F402F2E2D4B
:1017C0000E94C80B8F2D6E2D4F2D212F0E94C80B0C
:1017D000802F6E2D4F2D2E2D0E94C80B1F910F9123
:1017E000FF90EF9008956F927F928F929F92AF92A9
:1017F000BF92CF92DF92EF92FF920F931F93DF93EE
:10180000CF930F92CDB7DEB7982EA62E3901862E34
:10181000881A842F90E0880F991F909581959F4F8B
:10182000082F0D5FB42EDD241B2D1A0D4D2D490DF3
:10183000CA2CCB18842F612F2C2DF3010995492D2B
:101840004D19842F612F2C2DF3010995FD2CFA0CD5
:101850001819EA2CED18812F6F2D412F2E2DF30131
:101860000995C818C9828C2D6F2D4C2D2E2DF30192
:1018700009958D2D90E007FF07C00A5F880F991F1B
:10188000880F991F080F09C0065F8B199109880FEF
:10189000991F880F991F080FBA94D394BD1420F68E
:1018A0000F90CF91DF911F910F91FF90EF90DF90FC
:1018B000CF90BF90AF909F908F907F906F90089542
:1018C0002FEB3BE00E94F30B089528EC3BE00E94D5
:1018D000F30B08952F923F924F925F926F927F92F7
:1018E0008F929F92AF92BF92CF92DF92EF92FF9230
:1018F0000F931F93DF93CF9300D000D0CDB7DEB707
:10190000482F8B0120908209509183095A830D5FE3
:101910001F4FF80174910F5F1F4FF80154910F5F33
:101920001F4FF801649105501040851708F48AC0D4
:10193000282F30E0852F90E0860F911D82179307A6
:101940000CF480C0242F251BF801369690E040E06F
:1019500050E005C08491480F511D9F5F319692174A
:10196000C8F3E72EFF2487E090E0E80EF91EC701D8
:1019700033E0959587953A95E1F7E9EFFFEFEE0EA5
:10198000FF1E8983FC01E49FC001E59F900DF49F39
:10199000900D1124A62EBB2446E050E0A40EB51EE7
:1019A000A80EB91EE22FF0E03696E00FF11F8490EA
:1019B00098E0C92ED12CCE18DF084424552488E0A5
:1019C000682E712C36C03C2CC501850D911D800FF1
:1019D000911F9C838B83992416C0EB81FC81849199
:1019E000E614F7043CF490E0032C02C0959587952B
:1019F0000A94E2F70E94220993944B815C814F5F25
:101A00005F4F5C834B83981440F380E00E9422096F
:101A100080918209815060918309685F88190E94D2
:101A2000E7084394580C88E090E0680E791EC80ED1
:101A3000D91E9981491638F22394822D880D6A8126
:101A40000E94E7080F900F900F900F90CF91DF91B9
:101A50001F910F91FF90EF90DF90CF90BF90AF90CC
:101A60009F908F907F906F905F904F903F902F90BE
:101A70000895EF92FF920F931F93CF93DF937C0112
:101A8000EB01409382092093830910E02396FE0125
:101A9000049123970EC08A3041F4109282098091FC
:101AA0008309800F8093830903C0BE010E946A0CE2
:101AB0001F5FF701E10FF11D8081882361F7DF913E
:101AC000CF911F910F91FF90EF900895CF92DF92E9
:101AD000EF92FF920F931F93CF93DF936C0100E07F
:101AE000C0E0D0E080E0602F0E94E70810E07601BF
:101AF000EC0EFD1EF701E10FF11D80810E9422090D
:101B00001F5F1038B9F7085FC058DF4F003451F736
:101B1000DF91CF911F910F91FF90EF90DF90CF90C9
:101B200008958F929F92AF92BF92CF92DF92EF92E1
:101B3000FF920F931F93982EA62E862E881A842F1D
:101B400090E0880F991F909581959F4F63E0D62E66
:101B5000D80EB42ECC241C2D190D0B2D0A0D812F5F
:101B6000602F0E940F0AFA2CFB18812F6F2D0E9404
:101B70000F0A192D1C19812F602F0E940F0A812F27
:101B80006F2D0E940F0A0819EC2CEA0C802F6E2D85
:101B90000E940F0A1A2D1C19802F612F0E940F0A14
:101BA000F8188F2D6E2D0E940F0A8F2D612F0E9425
:101BB0000F0A8C2D90E0D7FE08C026E0D20E880FC9
:101BC000991F880F991FD80E0AC02AE0D20E8B19D0
:101BD0009109880F991F880F991FD80EBA94C39442
:101BE000BC1408F0B8CF1F910F91FF90EF90DF90D9
:101BF000CF90BF90AF909F908F900895EF92FF92FB
:101C00000F931F93CF93DF93062F142FC0E0D0E0E4
:101C1000E82EFF24C7010C2E02C0959587950A94E3
:101C2000E2F780FF05C0802F612F0E940F0A04C0D9
:101C3000802F612F0E94FB0921961F5FC830D105BC
:101C400049F7DF91CF911F910F91FF90EF90089589
:101C5000BF92CF92DF92EF92FF920F931F93CF9399
:101C6000DF93B62EDE2C469FE0011124C80FD91F4A
:101C700000E010E0FF2412C02881C8018E0D9F1DD6
:101C80008038910544F48FE38C1528F06D0D822F78
:101C90004C2D0E94FE0D0F5F1F4F2196602F0B15DC
:101CA00058F3DF91CF911F910F91FF90EF90DF904C
:101CB000CF90BF900895EF920F93FC01962F6E2D59
:101CC00007FD1EC06034E0F4822F869586958695C8
:101CD000899FC0011124E80FF91FE40FF11D8081D5
:101CE00090E0277002C0959587952A95E2F780FFCE
:101CF00004C0802F0E940F0A03C0802F0E94FB099E
:101D00000F91EF9008958F929F92AF92BF92CF92D2
:101D1000DF92EF92FF920F931F93CF93DF93EC012B
:101D2000A62EB42ED22E902E802E86948694869443
:101D3000F42E10E00CC0CE016D2D412F20E00D2DB2
:101D4000EA2CCF2C0E94280E1F5F88E0F80E181591
:101D500090F3C82CCC0CCC0CCC0CFC2CFB0C0EC087
:101D6000012F0A0DCE016D2D412F2C2DEF2C0E943D
:101D70005B0E1F5F1D15A0F3C394F394C91410F4F8
:101D800010E0F8CF8D2D8A0D80938209B0928309DF
:101D900087FF0AC010928209892D8B0D80938309D9
:101DA000803410F010928309DF91CF911F910F9131
:101DB000FF90EF90DF90CF90BF90AF909F908F906B
:101DC00008950E9484040E9433080E94A9040E947E
:101DD0008C04FFCFA0E2B0E0E0EFFEE00C947C16B4
:101DE00069837A838B839C832D833E834F835887BB
:101DF000CE010196BE01675F7F4F0E942D12CE017A
:101E00000596BE016F5E7F4F0E942D12998592301C
:101E100088F089898230C8F0943019F4823051F406
:101E200004C0843029F4923081F489E498E0C6C07B
:101E3000923049F420E09A858A89981321E02A8714
:101E4000CE010996BBC0823049F420E09A858A8988
:101E5000981321E02A8BCE014196B0C02D843E8498
:101E60004F8458886D887E888F88988CEE24FF2454
:101E70008701AA24BB24650140E050E060E070E0E7
:101E8000E0E0F0E0C10181709070892BE9F0E60C90
:101E9000F71C081D191D9A01AB012A0D3B1D4C1D95
:101EA0005D1D80E090E0A0E0B0E0E614F7040805D6
:101EB000190520F481E090E0A0E0B0E0BA01A901AA
:101EC000480F591F6A1F7B1FAA0CBB1CCC1CDD1CB2
:101ED00097FE08C081E090E0A0E0B0E0A82AB92A0F
:101EE000CA2ADB2A3196E032F10549F0660C771CEC
:101EF000881C991C5694479437942794C3CFFA852D
:101F0000EA892B893C898B859C85280F391F2E5F98
:101F10003F4F17C0CA0181709070892B61F01695F0
:101F20000795F794E79480E090E0A0E0B0E8E82A15
:101F3000F92A0A2B1B2B76956795579547952F5FA6
:101F40003F4F77FDE7CF0CC0440F551F661F771F2B
:101F500017FD4160EE0CFF1C001F111F2150304087
:101F6000403090E0590790E0690790E4790760F30A
:101F70002B8F3C8FDB01CA018F779070A070B070FF
:101F800080349105A105B10561F447FD0AC0E11453
:101F9000F1040105110529F0405C5F4F6F4F7F4F41
:101FA00040781A8EFE1711F081E08A8F4D8F5E8F78
:101FB0006F8F78A383E0898FCE0149960E945811D4
:101FC000A096E2E10C949816A8E1B0E0EAEEFFE0FA
:101FD0000C94841669837A838B839C832D833E8340
:101FE0004F835887B9E0EB2EF12CEC0EFD1ECE018D
:101FF0000196B7010E942D128E010F5E1F4FCE0178
:102000000596B8010E942D122985223008F47EC061
:102010003989323010F4B8017CC08A859A898927C1
:102020008A87243011F0223031F4231709F06EC072
:1020300069E478E06EC0343039F41D861E861F8650
:10204000188A1C861B8604C0323021F484E08987FC
:10205000B7015FC02B853C858B899C89281B390B78
:102060003C872B87ED84FE840F851889AD88BE8858
:10207000CF88D88CEA14FB040C051D0540F4EE0C47
:10208000FF1C001F111F215030403C872B8720E090
:1020900030E040E050E080E090E0A0E0B0E460E0BC
:1020A00070E0EA14FB040C051D0540F0282B392BC9
:1020B0004A2B5B2BEA18FB080C091D09B695A7955E
:1020C00097958795EE0CFF1C001F111F6F5F7F4FC8
:1020D0006F31710531F7DA01C9018F779070A07007
:1020E000B07080349105A105B10561F427FD0AC0E7
:1020F000E114F1040105110529F0205C3F4F4F4F19
:102100005F4F20782D873E874F87588BBE01675FD2
:102110007F4FCB010E9458116896EAE00C94A016FC
:10212000A8E0B0E0E6E9F0E10C9484167B018C01B4
:10213000611571058105910519F482E0898360C0FC
:1021400083E089838EE1C82ED12CDC82CB82ED82A4
:10215000FE820F831887C801B7010E940911FC0194
:102160003197F7FF3BC0222733272E1B3F0B570128
:102170006801022E04C0D694C794B794A7940A9419
:10218000D2F740E050E060E070E081E090E0A0E055
:10219000B0E004C0880F991FAA1FBB1F2A95D2F771
:1021A0000197A109B1098E219F21A023B123009796
:1021B000A105B10521F041E050E060E070E04A295E
:1021C0005B296C297D294D835E836F8378878EE13F
:1021D00090E08E1B9F0B9C838B8312C0309781F005
:1021E0000E2E04C0EE0CFF1C001F111F0A94D2F724
:1021F000ED82FE820F831887CE1ADF0ADC82CB8243
:102200001A82CE0101960E9458112896EAE00C9499
:10221000A016EF92FF920F931F937B018C0180E039
:10222000E81680E0F80681E0080780E0180788F4E7
:102230008FEFE816F1040105110531F028F088E070
:1022400090E0A0E0B0E017C080E090E0A0E0B0E057
:1022500012C080E0E81680E0F80680E0080781E020
:10226000180728F088E190E0A0E0B0E004C080E129
:1022700090E0A0E0B0E020E230E040E050E0281B39
:10228000390B4A0B5B0B04C016950795F794E7943E
:102290008A95D2F7F701EF5AF74F8081281B310951
:1022A00041095109C9011F910F91FF90EF900895C5
:1022B000DF92EF92FF920F931F93FC01E480F58071
:1022C00006811781D1808081823048F480E090E0DF
:1022D000A0E1B0E0E82AF92A0A2B1B2BA5C0843024
:1022E00009F49FC0823021F4EE24FF24870105C049
:1022F000E114F1040105110519F4E0E0F0E096C0E5
:10230000628173819FEF623879070CF05BC022E82D
:102310003FEF261B370B2A3131052CF020E030E04F
:1023200040E050E02AC0B801A701022E04C0769513
:102330006795579547950A94D2F781E090E0A0E021
:10234000B0E004C0880F991FAA1FBB1F2A95D2F7BF
:102350000197A109B1098E219F21A023B1230097E4
:10236000A105B10521F081E090E0A0E0B0E09A0184
:10237000AB01282B392B4A2B5B2BDA01C9018F7754
:102380009070A070B07080349105A105B10539F44A
:1023900027FF09C0205C3F4F4F4F5F4F04C0215CB7
:1023A0003F4F4F4F5F4FE0E0F0E02030A0E03A07B2
:1023B000A0E04A07A0E45A0710F0E1E0F0E079015C
:1023C0008A0127C06038710564F5FB01E158FF4FB1
:1023D000D801C7018F779070A070B07080349105DC
:1023E000A105B10539F4E7FE0DC080E490E0A0E05E
:1023F000B0E004C08FE390E0A0E0B0E0E80EF91E8A
:102400000A1F1B1F17FF05C016950795F794E79441
:10241000319687E016950795F794E7948A95D1F75A
:1024200005C0EE24FF248701EFEFF0E06E2F6795E3
:1024300066276795902F9F77D794DD24D7948E2FAA
:102440008695492F462B582F5D29B701CA011F9148
:102450000F91FF90EF90DF900895FC01DB01408128
:1024600051812281622F6F7770E0221F2227221F65
:102470009381892F880F822B282F30E0991F99276D
:10248000991F11969C93119721153105A9F54115B6
:1024900051056105710511F482E037C082E89FEFB4
:1024A00013969C938E9312979A01AB0167E0220FCB
:1024B000331F441F551F6A95D1F783E08C930DC0DD
:1024C000220F331F441F551F12968D919C91139715
:1024D000019713969C938E931297203080E03807D3
:1024E00080E0480780E4580758F314962D933D93F5
:1024F0004D935C93179708952F3F310579F441155B
:1025000051056105710519F484E08C93089564FF09
:1025100003C081E08C9312C01C9210C02F57304032
:1025200013963C932E93129783E08C9387E0440F8D
:10253000551F661F771F8A95D1F7706414964D93C7
:102540005D936D937C93179708952F923F924F92CE
:102550005F926F927F928F929F92AF92BF92CF9233
:10256000DF92EF92FF920F931F93DF93CF93CDB73C
:10257000DEB761970FB6F894DEBF0FBECDBF3C014A
:102580007F876E876A01FC0117821682838181FD35
:1025900003C06FEF7FEF6FC39E012F5F3F4F398BFB
:1025A000288BF3012381EE85FF8523FD859123FF91
:1025B0008191FF87EE87882309F45AC3853251F44D
:1025C000EE85FF8523FD859123FF8191FF87EE87AF
:1025D000853229F490E0B3010E94A117E2CF982F31
:1025E00010E0882499241032B0F49B3269F09C32B8
:1025F00028F4903251F0933271F40BC09D3239F0CF
:10260000903349F4116028C01260146025C018602E
:1026100023C0106121C017FD2AC0892F80538A3042
:1026200078F416FF06C0FAE09F9E902C1124980EB5
:1026300013C03AE0839E802C1124880E10620CC0D7
:102640009E3221F416FD14C3106406C09C3611F4AA
:10265000106802C0983659F4EE85FF8523FD9591E8
:1026600023FF9191FF87EE87992309F0BCCF892F33
:102670008554833020F4812F8061905E07C0892FBC
:102680008556833008F09FC1812F8F7E86FD02C062
:1026900076E0972E6FE3F62EF822953619F4F0E4E3
:1026A000FF2A07C0963619F420E8F22A02C09110DA
:1026B0009A94F7FE0AC03BE3391518F45CE3B52E93
:1026C00002C0B92CB39427E009C047E0491520F4B3
:1026D000BB2447E0942EF7CF292DBB24C6010496D6
:1026E0009D878C87F6016081718182819381AE0123
:1026F0004F5F5F4F0B2D0E94B3166C010981202E96
:10270000332400FF04C003FD02C01DE209C0F1FE36
:1027100002C01BE205C0F2FC02C010E001C010E2E2
:10272000C1018C709070892BB9F1112311F483E0F1
:1027300001C084E0881510F088240AC0881AF3FCD0
:1027400007C080E290E0B3010E94A1178A94C9F704
:10275000112329F0812F90E0B3010E94A11723FEDD
:1027600003C000EA17E00EC004EA17E00BC0E11452
:10277000F10409F0805290E0B3010E94A1170F5FAD
:102780001F4F05C0EF2CFF24F0E1EF22FF24F801DA
:102790008491882361F714C1F7FE12C0BC0C24FE9B
:1027A00004C08A81813309F4BA941B141CF0BB2441
:1027B000B3942DC0F8E0FB1550F538E0B32E27C0D8
:1027C000F6FC25C0892D90E08C159D054CF02CEF72
:1027D000C2162FEFD20624F030E8F32A01C09A94F3
:1027E000992049F0E2E0F0E0EC0FFD1FE90DF11D4A
:1027F00080818033A1F3F7FE0AC0B92CB394892DF0
:1028000090E0C816D90614F0992401C09C18F7FC72
:1028100003C025E030E009C01C141D041CF021E0B9
:1028200030E003C096012F5F3F4F112311F02F5F5F
:102830003F4F992029F0892D90E00196280F391FEC
:10284000882D90E02817390714F0882401C0821AD7
:102850004F2C5524C20189709070892B39F008C023
:1028600080E290E0B3010E94A1178A948820C1F70A
:10287000112329F0812F90E0B3010E94A11743FE9C
:1028800007C008C080E390E0B3010E94A1178A94BA
:102890008820C1F7F7FE46C08601D7FE02C000E0DF
:1028A00010E076010894E11CF11CE01AF10A41E005
:1028B00050E04C0F5D1FE40EF51E26014B18510829
:1028C000892D90E0AA24BB24A81AB90A5FEF0F3F14
:1028D000150729F48EE290E0B3010E94A117C016FB
:1028E000D10634F0401651061CF4F701808101C076
:1028F00080E3015010400894E11CF11C0A151B05EF
:102900002CF090E0B3010E94A117E0CF0C151D053B
:1029100039F49A81963318F4953311F424FE81E347
:1029200090E04BC08A81813309F00F7E90E0B301C3
:102930000E94A1179920A1F08EE290E0B3010E94BD
:10294000A11712E0E1E0F0E0EC0FFD1FE10FF11D37
:102950001F5F808190E0B3010E94A1179A9491F7C4
:1029600044FC03C085E690E002C085E490E0B3013A
:102970000E94A117D7FC05C0C114D10441F404FF83
:1029800006C0D094C194D108D3948DE201C08BE2EB
:1029900090E0B3010E94A11780E305C08F5F26EF8E
:1029A0003FEFC20ED31E3AE0C316D104BCF790E04D
:1029B000B3010E94A117C601C096B3010E94A117DE
:1029C000CC84DD8452C1933631F0933799F093353E
:1029D00009F059C023C0F601808189835E01089403
:1029E000A11CB11C22E030E0C20ED31E21E0E22E79
:1029F000F12C12C0F601A080B18016FD03C06FEF6C
:102A00007FEF02C0692D70E022E030E0C20ED31EDD
:102A1000C5010E9496177C011F7713C0F601A080A4
:102A2000B18016FD03C06FEF7FEF02C0692D70E02B
:102A300022E030E0C20ED31EC5010E948B177C013C
:102A4000106813FF07C01BC080E290E0B3010E9432
:102A5000A1178A94882D90E0E816F906A8F30FC014
:102A6000F50117FD859117FF81915F0190E0B3019A
:102A70000E94A11781108A940894E108F108E114DA
:102A8000F10471F7F2C0943611F0993689F517FF09
:102A900008C0F601208131814281538184E090E0B9
:102AA0000AC0F601808191819C01442737FD409541
:102AB000542F82E090E0C80ED91E9FE6F92EF12235
:102AC00057FF09C050954095309521953F4F4F4F86
:102AD0005F4F90E8F92ACA01B901AE014F5F5F4F1D
:102AE0002AE030E00E94FE17E82EE889EE1A41C085
:102AF000953721F41F7E2AE030E01CC0197F9F36F5
:102B000061F0903720F4983509F0B2C00FC09037CB
:102B100039F0983709F0ACC004C028E030E00AC0B2
:102B2000106114FD146020E130E004C014FD166053
:102B300020E132E017FF08C0F601608171818281D7
:102B4000938144E050E008C0F60180819181BC018E
:102B500080E090E042E050E0C40ED51EAE014F5F31
:102B60005F4F0E94FE17E82E5889E51A8FE7F82E6E
:102B7000F122F6FE0BC08EEFF822E91438F4F4FED1
:102B800007C0F2FC05C09FEEF92202C01E2D01C055
:102B9000192DF4FE0DC0FE01EE0DF11D8081803374
:102BA00019F4E9EEFE2208C01F5FF2FE05C003C063
:102BB0008F2D867809F01F5F0F2DF3FC14C0F0FEF7
:102BC0000FC0181510F09E2C0BC09E2C980C911A5B
:102BD000182D06C080E290E0B3010E94A1171F5F8C
:102BE0001815C0F304C0181510F4811A01C0882408
:102BF00004FF0FC080E390E0B3010E94A11702FF21
:102C00001DC001FD03C088E790E00EC088E590E09C
:102C10000BC0802F867891F001FF02C08BE201C0CB
:102C200080E2F7FC8DE290E0B3010E94A11706C09C
:102C300080E390E0B3010E94A1179A94E914C0F3D5
:102C4000EA94E1E0F0E0EC0FFD1FEE0DF11D808154
:102C500090E0B3010E94A117EE2091F706C080E238
:102C600090E0B3010E94A1178A948820C1F799CC03
:102C7000F30166817781CB0161960FB6F894DEBFD0
:102C80000FBECDBFCF91DF911F910F91FF90EF90BD
:102C9000DF90CF90BF90AF909F908F907F906F907C
:102CA0005F904F903F902F90089597FB092E072635
:102CB0000AD077FD04D00CD006D000201AF470950D
:102CC00061957F4F0895F6F7909581959F4F0895F0
:102CD000AA1BBB1B51E107C0AA1FBB1FA617B70742
:102CE00010F0A61BB70B881F991F5A95A9F780955E
:102CF0009095BC01CD0108952F923F924F925F9223
:102D00006F927F928F929F92AF92BF92CF92DF92FB
:102D1000EF92FF920F931F93CF93DF93CDB7DEB760
:102D2000CA1BDB0B0FB6F894DEBF0FBECDBF0994F4
:102D30002A88398848885F846E847D848C849B844B
:102D4000AA84B984C884DF80EE80FD800C811B8159
:102D5000AA81B981CE0FD11D0FB6F894DEBF0FBE88
:102D6000CDBFED010895283008F027E03327DA01C0
:102D7000990F311D87FD916000966105710539F449
:102D800032602E5F3D9330E32A95E1F708959F3F2F
:102D900030F080387105610509F03C5F3C5F3D9380
:102DA000913008F08068911DDF93CF931F930F93AC
:102DB000FF92EF92192F987F9695E92F9695969509
:102DC000E90FFF27EE5FF74F99273327EE24FF2403
:102DD000A701E70105900894079428F4360FE71E31
:102DE000F81E491F511D660F771F881F991F0694F3
:102DF000A1F70590079428F4E70EF81E491F561F07
:102E0000C11D770F881F991F661F0694A1F70590B3
:102E1000079428F4F80E491F561FC71FD11D880FAD
:102E2000991F661F771F0694A1F70590079420F459
:102E3000490F561FC71FD81F990F661F771F881F7E
:102E40000694A9F784911095177041F0D695C7950F
:102E500057954795F794E7941A95C1F7E8EAF7E094
:102E600068941590159135916591959105907FE243
:102E70007395E118F10A430B560BC90BD009C0F743
:102E8000E10CF11E431F561FC91FD01D7EF4703385
:102E900011F48A95E6CFE894015030F0080F0AF457
:102EA0000027021708F4202F2395022F7A3328F0E9
:102EB00079E37D932A95E9F710C07D932A9589F6E9
:102EC000069497956795379517951794E118F10A29
:102ED000430B560BC90BD00998F023957E9173953F
:102EE0007A3308F070E37C932013B8F77E91706119
:102EF0007D9330F0839571E37D9370E32A95E1F73C
:102F00001124EF90FF900F911F91CF91DF9199279E
:102F100087FD90950895FC01059061507040011067
:102F2000D8F7809590958E0F9F1F0895FC016150F2
:102F3000704001900110D8F7809590958E0F9F1FDB
:102F400008950F931F93CF93DF938C01EB018B8137
:102F500081FF1BC082FF0DC02E813F818C819D812E
:102F60002817390764F4E881F9810193F983E8832C
:102F700006C0E885F985802F0995892B31F48E816B
:102F80009F8101969F838E8302C00FEF1FEFC801C0
:102F9000DF91CF911F910F9108950F931F93DF93AE
:102FA000CF93CDB7DEB72E970FB6F894DEBF0FBE26
:102FB000CDBF0D891E8986E08C831A8309838FEF2C
:102FC0009FE79E838D839E01275E3F4FCE01019632
:102FD0006F89788DA9010E94A5122F813885020F73
:102FE000131FF80110822E960FB6F894DEBF0FBEA5
:102FF000CDBFCF91DF911F910F910895FA01AA27BC
:10300000283051F1203181F1E8946F936E7F6E5F2B
:103010007F4F8F4F9F4FAF4FB1E03ED0B4E03CD0D9
:10302000670F781F891F9A1FA11D680F791F8A1FBC
:10303000911DA11D6A0F711D811D911DA11D20D023
:1030400009F468943F912AE0269F11243019305DDD
:103050003193DEF6CF010895462F4770405D4193CE
:10306000B3E00FD0C9F7F6CF462F4F70405D4A331B
:1030700018F0495D31FD4052419302D0A9F7EACFE3
:10308000B4E0A6959795879577956795BA95C9F712
:1030900000976105710508959B01AC010A2E069405
:1030A0005795479537952795BA95C9F7620F731FBE
:0C30B000841F951FA01D0895F894FFCF09
:1030BC0001010101010101010137332500393027DC
:1030CC004300252E32665600252E326600352743E6
:1030DC0000000000000000000000000000000000E4
:1030EC0000000000000000000000000000000000D4
:1030FC0000000000000000000000000000000000C4
:10310C0000000000000000000000000000000000B3
:10311C0000000000000000000000000000000000A3
:10312C000000000000000000000000000000000093
:10313C000000000000000000000000000000000083
:10314C000000000000000000000000000000000073
:10315C000000000000000000000000000000000063
:10316C000000000000000000000000000000000053
:10317C000000000000000000000000000000000043
:10318C000000000000000000000000000000000033
:10319C000000000000000000000000000000000023
:1031AC000000000000000000000000000000000013
:1031BC000000000000000000000000000000000003
:1031CC0000000000000000000000000000000000F3
:1031DC0000000000000000000000000000000000E3
:1031EC0000000000000000000000000000000000D3
:1031FC0000000000000000000000000000000000C3
:10320C0000000000000000000000000000000000B2
:10321C0000000000000000000000000000000000A2
:10322C000000000000000000000000000000000092
:10323C000000000000000000000000000000000082
:10324C000000000000000000000000000000000072
:10325C00000000000000000000000020F0F8FCFC62
:10326C00FEFEDEDE9E9E9E9E1E1E1E1E1E1E1E0E42
:10327C00060000F8FEFEFEFEFE000080E0F0FCFC06
:10328C00FCFC000000C0F0F8FCFEFE7E1E0E06806A
:10329C00C0F8FCFEFEFE1E060080E0F8FCFEFEBE42
:1032AC003E1E1E1E1E1E1E1E1E1E1E1E1E1E1E062A
:1032BC000000181E1E1E1E9EFEFEFEFEFEFE1E1EA4
:1032CC001E1E1E1E1E1E1E0600000000000000001A
:1032DC0000000000000000E0F0F0F0F0F0F0F1F180
:1032EC00F1F3F3F3F3F3F3F3FFFFFF7F7F3E000003
:1032FC00000000FFFFFFFFFFFFFC7F1F0F03FBFF22
:10330C00FFFFFCFCFFFF7F1F0703010080F8F8FFA5
:10331C00FFFF7F0F0100C0F0FCFFFFFF3F0F0F0FFF
:10332C000F0F0F0F0F0F0F0F0F07070100000000FB
:10333C0000000000C0F0FEFFFFFF3F0F0100000087
:10334C000000000000000000000000000000000071
:10335C00000000000000000000000000000101015E
:10336C00010101010101010000000000000000004A
:10337C000000000000000000000000000000000041
:10338C000000000000000000000000000000000031
:10339C000000000000000000000000000000000021
:1033AC000000000000000000000000000000000011
:1033BC000000000000000000000000000000000001
:1033CC0000000000000000000000000000000000F1
:1033DC0000000000000000000000000000000000E1
:1033EC0000000000000000000000000000000000D1
:1033FC0000000000000000000000000000000000C1
:10340C0000000000000000000000000000000000B0
:10341C0000000000000000000000000000000000A0
:10342C000000000000000000000000000000000090
:10343C000000000000000000000000000000000080
:10344C000000000000000000000000000000000070
:10345C000000000000000000000000000000000060
:10346C000000000000000000000000000000000050
:10347C000000000000000000000000000000000040
:10348C000000000000000000000000000000000030
:10349C000000000000000000000000000000000020
:1034AC000000000000000000000000000000000010
:1034BC000000000000000000000000000000000000
:1034CC0000000000000000000000000000000000F0
:1034DC00000000C040606060404040404040606080
:1034EC006040C000000000FF80828282808080806B
:1034FC00808082878280FF000000000000000000B6
:10350C0000000000000000000000000000000000AF
:10351C000080C06030101010101010101010F0004F
:10352C00000000FEFFFDFCFCFCFCFCFCFCFCFCF4C5
:10353C00F4F4FF000000000101010101010101018F
:10354C000101010101010100008060188462100872
:10355C0008C444444488081062841860801F608F3B
:10356C0019608000003F04040403008060198F6020
:10357C001F0000010204000101020202020101000D
:10358C000402010000000080C0E0E0F0F0F0F0E088
:10359C00C00040C0808000000000061F3F7F7FFFFE
:1035AC00FFFFFF7F3F001236246D494900000000E9
:1035BC0000000000000000000000000000000000FF
:1035CC0000000080E0F0F0F8F8FCFCFCFCFCFCFCDB
:1035DC00FCFCFC7C7C7C7C7C7C7C7C7C7CFCFCEC2F
:1035EC00ECCCCCCCCCCCCCCCCCCCCCCCFCCCCCCCBF
:1035FC00CCCCCCCCCCCCECECFCFC7C7C7C7C7C7C3F
:10360C007CFCFCFCF0F000000000FFFFFFFFFFFF64
:10361C00FFFFFFFFFFFFFF030100000000000000A1
:10362C0000000000FFFFFFFFFFFFFFFFFFFFFFFF9A
:10363C00FFFFFFFFFFFFFFFFFFFFFFFFFF01010089
:10364C000000000000000000FFFFFFFFFF00000073
:10365C0000FFFFFFFFFFFFFFFFFFFFFFFFFF8000EB
:10366C000000000000000000000000FFFFFFFFFF53
:10367C00FFFFFFFFFFFFFFFFFFFFFFFFFFFFFFFF4E
:10368C00FFFFFFFF8080000000000000000000FF33
:10369C00FFFFFFFF0000000003070F0F1F1F3F3F3E
:1036AC003F3F3F3F3F3F3F3E3C3C3C3C3C3C3C3C37
:1036BC003C3C3F3F3737333333333333333333339C
:1036CC00333F33333333333333333337373F3F3E87
:1036DC003E3E3E3E3E3E3F3F3F0F0F00000000008F
:1036EC0000000000000000000000000000000000CE
:1036FC008080804040202010100808040404060537
:10370C0004040400000080C0A09090701808080CFD
:10371C000404040406020201000000000000000082
:10372C00000000000000000000000000000F392025
:10373C00202020202078CC86020101010286CC7842
:10374C00202020202020202020202020202020206D
:10375C0020202000000000000000000000000001FC
:10376C000102020201010000000000000000000044
:10377C00000000000000000000000000000000003D
:10378C0000000080808000000000000000000000AD
:10379C00000609123E2222222322222232140C0677
:1037AC000301011A000000000000000000000000EE
:1037BC00000000000000000000000000008080807D
:1037CC008000FCFE06060CFCF000000000307CCFF4
:1037DC00C36161311F3FF3B33F1E363361E080009C
:1037EC0000000000000000000000010303060606B4
:1037FC00060301000066668E400000000000000019
:10380C00000001020203030303040404040404047F
:10381C00040505050505050505050505050505054D
:10382C00050606060606060606060606060606062D
:10383C00060606060606060606060606060606061C
:10384C0006070707070707070707070707070707FD
:10385C0007070707070707070707070707070707EC
:10386C0007070707070707070707070707070707DC
:10387C0007070707070707070707070707070707CC
:10388C0007080808080808080808080808080808AD
:10389C00080808080808080808080808080808089C
:1038AC00080808080808080808080808080808088C
:1038BC00080808080808080808080808080808087C
:1038CC00080808080808080808080808080808086C
:1038DC00080808080808080808080808080808085C
:1038EC00080808080808080808080808080808084C
:1038FC00080808080808080808080808080808083C
:02390C000800B1
:00000001FF
